:400000000040002011000000250A0000250A000080B500AF00F038FD80B500AF114B12221A60182000F066FF0F4B104A1A60104B802252011A600F4B0F4A1A600F4B80224C
:4000400012061A600E4B00221A600E4B40221A600D4B00221A60034B11221A60C046BD4680BDC0463000104004010B4006000080000301400000014040FF008008010B409B
:4000800000010B40140101400C020B4080B582B000AF72B6504B01221A70FB1D00221A7022E0FB1D1A7813005B009B185B004B4A9B183B603B681A78597809020A43997881
:4000C00009040A43DB781B06134318003B681A795B791B0213439BB2190000F03DFCFB1D1A78FB1D01321A70FB1D1B78012BD8D93B4A3C4B1100180000F03EFC3A4BEE22BD
:4001000012021A60394B99221A60394B992212041A60384B992212041A60374B992212041A60364B992212041A60354B3F221A60344B3F221A60344A334B1B78DBB206214A
:400140000B43DBB21370314B80221A60304B314A1A60314B802212021A60304B41221A602F4B304A1A60304B02221A602F4B01221A602F4BB222FF321A602E4B02221A6067
:400180002D4B01221A602D4B2D4A1A602D4B02221A602D4B01221A602C4B01221A602C4B02221A602B4B01221A602B4B01221A602A4B02221A602A4B02221A60294B31225A
:4001C0001A60294B02221A60FFF726FF00F016FCC046BD4602B080BD1C700F40542600006426000060260000000302400007024000500F4010500F4020500F4030500F408F
:400200002000104000800F4000700F400000044008000440006C3B000C0004400001044008010440010018000C01044000020440080204400C0204400003044008030440C1
:40024000810D00000C03044000040440080404400C04044000050440080504400C05044000070440080704401807044010B5064C2378002B07D1054B002B02D0044800E093
:4002800000BF0123237010BD4801002000000000FC250000084B10B5002B03D00749084800E000BF07480368002B00D110BD064B002BFBD09847F9E7000000004C01002026
:4002C000FC250000C80000200000000080B500AF01F04CF900F0B0FF044B1A68044B1A60044B01221A70C046BD4680BDB0010020640100207C01002080B500AF01F0B8F8E8
:4003000001F0C0F8044B1A68044B5A60044B01225A70C046BD4680BDB0010020640100207C01002080B500AF01F03AF800F0C4FF044B1A68044B9A60044B01229A70C0466F
:40034000BD4680BDB0010020640100207C01002080B500AF01F070F901F078F9044B1A68044BDA60044B0122DA70C046BD4680BDB0010020640100207C01002080B500AF77
:4003800001F0B0FA01F0B8FA044B1A68044B1A61044B01221A71C046BD4680BDB0010020640100207C01002080B500AF01F018FB01F020FB044B1A68044B5A61044B0122ED
:4003C0005A71C046BD4680BDB0010020640100207C010020F0B5B1B000AF80209C231024A446BC44634418609C2310208446BC4463441868013898231024A446BC4463440F
:4004000018609C2310208446BC4463441868B8600020F860BB68580FFB68DA000243BB68D9009C2310229446BC4463441A681500002216006A0FF3007B607B6813437B6030
:40044000EB003B609C2310229446BC4463441B680733DB08DB006A46D31A9D466B460033942210218C46BC4462441360942310229446BC4463441B68A02210218C46BC4421
:4004800062441360A72310229446BC44634400221A70A62310229446BC44634400221A70CA4B00221A60CA4B180001F001F8C94B180000F07FFFC84B180000F013FFC74B31
:4004C000180001F05DF8C64B180001F0ADF9C54B180001F027FA032001F00CF8032000F08BFF032000F020FF032001F06BF8032001F0BCF9032001F037FA62B6002000F010
:40050000B3FE00F05FFB00F0A7FD0023A82210218C46BC446244136023E0A82310229446BC4463441B68180000F048FE031E0BD1AD4AA82310218C46BC4463441B681100D4
:40054000180000F025FE14E0A82310229446BC4463441B680133A82210218C46BC4462441360A82310229446BC4463441B68042BD3D99E4B180000F0DFFB61E0AC23102258
:400580009446BC4463441B680D2B07D0AC2310229446BC4463441B680A2B0DD1A72310229446BC44634401221A700023AC2210218C46BC4462441360AC2310229446BC44FE
:4005C00063441B68DAB2A02310218C46BC4463441B681A70A02310229446BC4463441B680133A02210218C46BC4462441360A02310229446BC4463441B6800221A70942364
:4006000010229446BC4463441A689C2310218C46BC4463441B68D218A02310218C46BC4463441B689A420BD8942310229446BC4463441B68A02210218C46BC446244136035
:4006400000F05AFB0300AC2210218C46BC4462441360AC2310229446BC4463441B68002B8CD1A72310229446BC4463441B78002B68D0A72310229446BC44634400221A701F
:40068000942310229446BC4463441B68A02210218C46BC4462441360942310229446BC4463441A681423FB181100180001F09CFB1423FA184E4B1100180001F08BFB031EE5
:4006C0001AD1A62310229446BC44634401221A703E4B00221A6000F0EFFC00F033FF00F0B3FE00F049FE00F093FF01F0E7F801F063F9012000F0B8FD1423FA183D4B1100A5
:40070000180001F067FB031E17D1A62310229446BC44634400221A7000F0DEFC00F01CFF00F09CFE00F032FE00F07CFF01F0D0F801F04CF9002000F097FD1423FB1818003E
:4007400000F0FAFA0023A82210218C46BC446244136031E0284AA82310218C46BC4463441B68D3181B78DBB2002B18D0A62310229446BC4463441B78002B10D0A8231022DC
:400780009446BC4463441B68DBB2842210218C46BC44624414217918180000F02FF8A82310229446BC4463441B680133A82210218C46BC4462441360A82310229446BC4472
:4007C00063441B68052BC5D9D7E6C046B0010020CD020000F902000025030000510300007D030000A9030000410900000026000010260000182600007C01002080B584B011
:4008000000AFB9607A600F23FB18021C1A700F23FB181A784349BB68180001F0B9FABB68180000F089FA0F23FB181A783E4B9200D2583E497B68180001F0AAFA7B6818000B
:4008400000F07AFA0F23FB181B78394AD35CDBB21A003849BB68180001F09AFABB68180000F06AFA0F23FB181B78052B3AD89A00314BD3181B689F4600F026FF0300DB435A
:40088000DBB2180000F0F8FE2CE000F053FF0300DB43DBB2180000F025FF23E000F080FF0300DB43DBB2180000F052FF1AE000F0ADFF0300DB43DBB2180000F07FFF11E051
:4008C00001F0D6F80300DB43DBB2180001F0A8F808E001F003F90300DB43DBB2180001F0D5F8C0460F23FB181B780F22BA1812780F498A5CD2B2511E8A41D2B201214A40F2
:40090000D2B2111C01220A40D1B2094AD1540F23FB181B78094A0021D154C046BD4604B080BDC04620260000640100202C26000084010020342600003C2600007C01002012
:4009400080B500AF034B1B685A1C024B1A60C046BD4680BDB001002080B582B000AF786039603A687B680021180001F008FAC046BD4602B080BDC04680B586B000AF786046
:40098000396000233B6100237B612FE07B699B007A68D3181B68BB600F23FB18BA681A70BB68FF229343BB6018E03B695B003A68D3181B781A00BB68D31819003B695B006A
:4009C0003A68D3185B780B703B6901333B610F23FB181A780F23FB18013A1A700F23FB181B78002BE1D17B6901337B617B69002BCCD0C046BD4606B080BDC04680B500AF8D
:400A0000054B03221A60054B03221A60044B00221A60C046BD4680BD3000304030003140000E3F4080B500AF01F074F903001B680C2B00D1FEE7FEE780B584B000AF78604F
:400A40000F4B1A687B68D3181A000E4BD31A802B09DC0B4B1B68FB60094B1A687B68D218074B1A6007E001F055F903000C221A6001235B42FB60FB681800BD4604B080BDDD
:400A8000CC000020B801002080B586B000AF224B7B61224B3B61204B7B6135E03B691B68FB603B695B68BB603B699B683B6000237B600CE0FB681A68BB681A60BB6804339D
:400AC000BB60FB680433FB607B6804337B607A683B689A42EED13B69DB683B6000237B6008E0BB6800221A60BB680433BB607B6804337B607A683B689A42F2D13B69103335
:400B00003B617B69013B7B617B69002BC6D101F007F9FFF75FFCFEE7010000002427000080B582B000AF154B144A126801218A431A6000237B600FE07B68032B04D8104B18
:400B40007A689200D35800E00E4B0F4A796889008B507B6801337B607B682F2BECD9FFF795FA0A4B00221A60044B044A126801210A431A60C046BD4602B080BD000010404D
:400B800000000000250A000000000020C000002080B500AF00F036F8C046BD4680BDC04680B500AF064B064A1268802109060A431A6000F019F800F01DF8C046BD4680BDF6
:400BC0000000274080B500AF064B1B78002B04D1FFF7DEFF034B01221A70FFF7E1FFC046BD4680BD8A01002080B500AFC046BD4680BDC04680B500AF00F066F8C046BD46C6
:400C000080BDC04680B500AF1B4B1C4A1A601C4B00221A601B4B1C4A1A601C4B1C4A1A601C4B07221A601C4B00221A601B4B01221A601B4B164A1A601A4B00221A601A4B01
:400C400004221A60194B00221A60194B00221A60184B00221A60184B00221A60174B00221A60174B00221A60154B1B689AB2154B1A80C046BD4680BD000027400B000002F7
:400C8000400027404800274001000A000003274007000080040327401003274044002740000227400402274050002740880E2740C80E2740480F2740080F2740C80F27400E
:400CC000880F27408C01002080B500AF074B074A1268F0218A4390210A431A60044B054A12881A60C046BD4680BDC04600070240880F27408C01002080B582B000AF0023C7
:400D00007B6000F019FF031E03D000F005FF03007B60084B1A68D8239B00134005D000237B60044BD82292001A607B681800BD4602B080BDC00F274080B584B000AF786011
:400D40000023FB6009E07A68FB68D3181B78180000F002FFFB680133FB607A68FB68D3181B78002BEFD1C046BD4604B080BDC04690B587B000AF0023BB6000F04FFA031EDD
:400D800000D17EE0FC1D00F0C0FE0300237003233B6100237B6111E03C4B1B681A003F2313403B497A698A181278934203D17B6903333B6105E07B6901337B617B692D2B15
:400DC000EAD9344B1B681F22134007D1314B314A12681F218A430C210A431A602E4B1B682E4A1340FB603B692D4A53438022D20194466344DB0B013B5B055B0DFA681343E5
:400E0000FB60FB68A02252031343FB603B69192B05D8FB68FF2292051343FB6016E03B69204A944663441B78DBB219003B691A3B1D4AD35CCB18BB60BB68FF2B00D9FF2308
:400E4000BB60BB689B05FA681343FB60124BFA681A60164B1B683B60302000F093FE144B134A12688021C9050A431A60142000F0CDF80E4B3A681A60FB1D1B78180000F07B
:400E800048FEC046BD4607B090BDC0462CFF0B408426000034FF0B400800224000F800C040420F00CDF1FF0FB4260000300010400000224080B500AF044B044A12680449B8
:400EC0000A401A60C046BD4680BDC04600002240FFFFFFBF80B500AF054B1A688023DB05134001D0012300E000231800BD4680BD0000224090B58BB000AF786000237B627F
:400F00002323FC1800F001FE03002370FFF7E2FF031E03D001237B62FFF7CCFF1B4B1A680823FB181A601A4B1A680823FB185A607B68033B174AD35C1A000823FB189A60C3
:400F4000154B1A680823FB18DA601823FB18134A1A600823FA181823FB185A60104B1822BA181A600F4B104A1A600D4B1B687B6A012B01D1FFF7FCFE2323FB181B781800EC
:400F800000F0C7FDC046BD460BB090BD08010B4000010B408426000030001040B6EA000008001040040010401700008080B584B000AF02003960FB1D1A7080239B05FB60CC
:400FC000FB1D1B780F2B02D9002000F013F8FB1D1B789B00FA68D3181B68BB60FB1D1B789B00FA68D3183A681A60BB681800BD4604B080BD80B582B000AF0200FB1D1A704D
:4010000001BEC046BD4602B080BDC04680B582B000AF786009E00D4B1B68180000F06CFD7B680B4A944663447B607A6880231B029A42F0D8074B1B687A685343180000F0A1
:401040005BFDC046BD4602B080BDC046DC0000200080FFFFD400002080B582B000AF00237B6007E0114B7A6892000021D1507B6801337B607B68042BF4D90D4B19000F202E
:40108000FFF794FF012000F053F80A4B1A68FA239900100000F0B2FD0300180000F038F800F06CF8C046BD4602B080BD90010020D9110000D000002080B500AF00F01AF817
:4010C000044B044A126801210A431A60C046BD4680BDC04610E000E080B500AF044B044A126801218A431A60C046BD4680BDC04610E000E080B500AF044B044A1268022136
:401100000A431A60C046BD4680BDC04610E000E080B582B000AF7860044B7A681202120A1A60C046BD4602B080BDC04614E000E080B582B000AF78607B68012B06D1084B0A
:40114000074A126804210A431A6005E0044B044A126804218A431A60C046BD4602B080BD10E000E080B500AF034B1B681B0C012213401800BD4680BD10E000E080B500AF2A
:40118000024B00221A60C046BD4680BD18E000E080B584B000AF78603960074B7A689200D358FB60044B7A6892003968D150FB681800BD4604B080BD9001002080B582B047
:4011C00000AF7860034B7A689200D3581800BD4602B080BD9001002080B582B000AFFFF7C1FF0300012B13D100237B600DE00A4B7A689200D358002B04D0074B7A6892003D
:40120000D35898477B6801337B607B68042BEED9C046BD4602B080BD9001002080B500AF044B1B68002B01DA012300E000231800BD4680BD0000224080B582B000AF094B29
:401240001B68DAB2FB1D7F218A431A70054BFA1D12781A60FB1D1B78DB09DBB21800BD4602B080BD1000044080B584B000AF0200FB1D1A700F4B1B68DAB20F23FB184021A0
:401280008A431A70FB1D1B789B01DBB240221340D9B20F23FB180F22BA1812780A431A70044B0F22BA1812781A60C046BD4604B080BDC0460001044080B582B000AF084B16
:4012C0001B68DAB2FB1D01210A401A70044BFA1D12781A60FB1D1B781800BD4602B080BD1003044080B582B000AF786000F04EF87B68180000F00AF8032000F015F800F03A
:401300003BF8C046BD4602B080BDC04680B582B000AF7860034B7A689A64C046BD4602B080BDC0460000002090B585B000AF0200FB1D1A701623FB600B23FC1800F0E5FBCF
:40134000030023700A4B0A4A12680A491140FA1D1078FA68904002000A431A600B23FB181B78180000F0D5FBC046BD4605B090BD00E400E0FFFF3FFF80B500AF024B042268
:401380001A60C046BD4680BD00E100E080B500AF024B04221A60C046BD4680BD80E100E080B500AF024B04221A60C046BD4680BD80E200E080B582B000AF786000F04EF8D7
:4013C0007B68180000F00AF8032000F015F800F03BF8C046BD4602B080BDC04680B582B000AF7860034B7A685A64C046BD4602B080BDC0460000002090B585B000AF02009A
:40140000FB1D1A700E23FB600B23FC1800F07DFB030023700A4B0A4A12680A491140FA1D1078FA68904002000A431A600B23FB181B78180000F06DFBC046BD4605B090BD8E
:4014400000E400E0FF3FFFFF80B500AF024B02221A60C046BD4680BD00E100E080B500AF024B02221A60C046BD4680BD80E100E080B500AF024B02221A60C046BD4680BD2B
:4014800080E200E080B582B000AF084B1B68DAB2FB1D01210A401A70044BFA1D12781A60FB1D1B781800BD4602B080BD1002044080B582B000AF786000F04EF87B681800D0
:4014C00000F00AF8032000F015F800F03BF8C046BD4602B080BDC04680B582B000AF7860034B7A681A64C046BD4602B080BDC0460000002090B585B000AF0200FB1D1A7032
:401500000623FB600B23FC1800F0FFFA030023700B4B0B4A1268C0218A431100FA1D1078FA68904002000A431A600B23FB181B78180000F0EEFAC046BD4605B090BDC04613
:4015400000E400E080B500AF024B01221A60C046BD4680BD00E100E080B500AF024B01221A60C046BD4680BD80E100E080B500AF024B01221A60C046BD4680BD80E200E027
:4015800080B582B000AF786000F04CF87B68180000F00AF8032000F015F800F039F8C046BD4602B080BDC04680B582B000AF7860034B7A68DA64C046BD4602B080BDC04683
:4015C0000000002090B585B000AF0200FB1D1A701E23FB600B23FC1800F097FA030023700A4B0A4A126892009108FA1D1078FA68904002000A431A600B23FB181B78180035
:4016000000F087FAC046BD4605B090BD00E400E080B500AF024B08221A60C046BD4680BD00E100E080B500AF024B08221A60C046BD4680BD80E100E080B500AF024B0822D7
:401640001A60C046BD4680BD80E200E080B582B000AF084B1B68DAB2FB1D01210A401A70044BFA1D12781A60FB1D1B781800BD4602B080BD1001044080B584B000AF020054
:40168000FB1D1A700F4B1B68DAB20F23FB1840218A431A70FB1D1B789B01DBB240221340D9B20F23FB180F22BA1812780A431A70044B0F22BA1812781A60C046BD4604B052
:4016C00080BDC0460000044080B500AF044B1B68402213409B09DBB21800BD4680BDC0460400044080B584B000AF0200FB1D1A700F4B1B68DAB20F23FB1820218A431A701F
:40170000FB1D1B785B01DBB220221340D9B20F23FB180F22BA1812780A431A70044B0F22BA1812781A60C046BD4604B080BDC0460000044080B500AF044B1B682022134067
:401740005B09DBB21800BD4680BDC0460400044080B584B000AF0200FB1D1A700F4B1B68DAB20F23FB1810218A431A70FB1D1B781B01DBB210221340D9B20F23FB180F2206
:40178000BA1812780A431A70044B0F22BA1812781A60C046BD4604B080BDC0460000044080B500AF044B1B68102213401B09DBB21800BD4680BDC0460400044080B584B061
:4017C00000AF0200FB1D1A700F4B1B68DAB20F23FB1808218A431A70FB1D1B78DB00DBB208221340D9B20F23FB180F22BA1812780A431A70044B0F22BA1812781A60C04648
:40180000BD4604B080BDC0460000044080B500AF044B1B6808221340DB08DBB21800BD4680BDC0460400044080B582B000AF786000F04EF87B68180000F00AF8032000F0FD
:4018400015F800F03BF8C046BD4602B080BDC04680B582B000AF7860034B7A681A65C046BD4602B080BDC0460000002090B585B000AF0200FB1D1A700623FB600B23FC18EC
:4018800000F043F9030023700B4B0B4A1268C0218A431100FA1D1078FA68904002000A431A600B23FB181B78180000F032F9C046BD4605B090BDC04604E400E080B500AF24
:4018C000024B10221A60C046BD4680BD00E100E080B500AF024B10221A60C046BD4680BD80E100E080B500AF024B10221A60C046BD4680BD80E200E080B582B000AF084BB6
:401900001B68DAB2FB1D01210A401A70044BFA1D12781A60FB1D1B781800BD4602B080BD1004044080B582B000AF786000F04EF87B68180000F00AF8032000F015F800F0F2
:401940003BF8C046BD4602B080BDC04680B582B000AF7860034B7A685A65C046BD4602B080BDC0460000002090B585B000AF0200FB1D1A700E23FB600B23FC1800F0C5F8F3
:40198000030023700A4B0A4A12680A491140FA1D1078FA68904002000A431A600B23FB181B78180000F0B5F8C046BD4605B090BD04E400E0FF3FFFFF80B500AF024B202225
:4019C0001A60C046BD4680BD00E100E080B500AF024B20221A60C046BD4680BD80E100E080B500AF024B20221A60C046BD4680BD80E200E080B582B000AF084B1B68DAB205
:401A0000FB1D01210A401A70044BFA1D12781A60FB1D1B781800BD4602B080BD1005044080B584B000AF0200FB1D1A700F4B1B68DAB20F23FB1802218A431A70FB1D1B7891
:401A4000DB18DBB202221340D9B20F23FB180F22BA1812780A431A70044B0F22BA1812781A60C046BD4604B080BDC0460002044080B500AF044B1B68022213405B08DBB282
:401A80001800BD4680BDC0460402044080B584B000AF0200FB1D1A700F4B1B68DAB20F23FB1804218A431A70FB1D1B789B00DBB204221340D9B20F23FB180F22BA181278EF
:401AC0000A431A70044B0F22BA1812781A60C046BD4604B080BDC0460002044080B500AF044B1B68042213409B08DBB21800BD4680BDC046040204400230800803D00138A6
:401B0000FDD1C046C046C0467047EFF3108072B6704780F31088704780B582B000AF00237B60044B1B687B607B681800BD4602B080BDC0464003274080B582B000AF054B37
:401B40001B681F2213407B607B681800BD4602B080BDC0460803274080B582B000AF7860C046064B1B681F221340082BF9D0044B7A681A60C046BD4602B080BD08022740A2
:401B80004002274090B585B000AF78600F23FC18FFF7BBFF030023707B68102B06D8164B154A126803218A431A601AE07B68202B08D8114B104A126803218A4301210A43B6
:401BC0001A600EE07B68302B08D80B4B0A4A126803218A4302210A431A6002E00020FFF709FA0F23FB181B781800FFF792FFC046BD4605B090BDC0463000104000224308F0
:401C00008B4274D303098B425FD3030A8B4244D3030B8B4228D3030C8B420DD3FF22090212BA030C8B4202D31212090265D0030B8B4219D300E0090AC30B8B4201D3CB03FE
:401C4000C01A5241830B8B4201D38B03C01A5241430B8B4201D34B03C01A5241030B8B4201D30B03C01A5241C30A8B4201D3CB02C01A5241830A8B4201D38B02C01A524129
:401C8000430A8B4201D34B02C01A5241030A8B4201D30B02C01A5241CDD2C3098B4201D3CB01C01A524183098B4201D38B01C01A524143098B4201D34B01C01A5241030937
:401CC0008B4201D30B01C01A5241C3088B4201D3CB00C01A524183088B4201D38B00C01A524143088B4201D34B00C01A5241411A00D20146524110467047FFE701B500208E
:401D000000F006F802BDC0460029F7D076E770477047C046014B18687047C046440100200E4B70B500251E000D4CE41AA410A54204D0AB00F35898470135F8E700F0E0FC04
:401D4000084B00251E00084CE41AA410A54204D0AB00F35898470135F8E770BD0C2700000C2700000C27000014270000002310B59A4203D0CC5CC4540133F9E710BD030066
:401D80008218934202D019700133FAE7704700000EB410B59DB002A9029008610B48822488604861012040421FABC881084804CBA400006801938C8100F080F80023029AE0
:401DC00013701DB010BC08BC03B01847FFFFFF7F4401002002780B78002A03D0013001319A42F7D0D01A7047031C0A7801311A700133002AF9D17047F0B58E6885B007005C
:401E00000C00039201939E4243D890238A89DB001A423ED003250969236801985B1A029363695D43EB0F5D19029B6D1001331B18AB4200D91D00530510D52900380000F0D1
:401E400037FB061E14D0029A2169FFF78FFFA289194B134080221343A38112E02A00380000F086FB061E0CD12169380000F0D4FA0C23402201203B60A38940421343A381C5
:401E800017E0029B2661F61826606561019EED1AA560019BB34200D21E0032000399206800F0A5FA0020A3689B1BA36023689E19266005B0F0BDC0467FFBFFFFF0B59FB01C
:401EC000029005938B890F0016001B0610D50B69002B0DD1402100F0EBFA38603861002804D10C23029A01381360D8E040237B61002306AD6B6120336B761033AB763400BC
:401F00002378002B03D1A31B049312D003E0252BF9D00134F4E7A31B320039000298FFF76BFF431C00D1B4E06A69049B944663446B612378002B00D1ABE001220023524222
:401F40006A6002A95432521801342B60EB60AB601370AB65534E21780522300000F03CFA002807D00123801B83402A68013413432B60EFE72B68DA0604D55322202102A8F1
:401F8000121811701A0704D553222B2102A81218117022782A2A03D0099B00200A210EE0059A111D12680591002A01DB099204E05242EA60022213432B6001340BE02278C9
:401FC000303A092A04D84B4301349B180120F6E7002800D0099323782E2B1ED163782A2B0AD1059B02341A1D1B680592002B01DA01235B42079310E000230A201A0001345E
:402000006B6021783039092904D84243013452180123F6E7002B00D00792234E21780322300000F0D9F9002806D04023801B83402A68013413432B60217806221B48661CDE
:40204000297600F0C9F9002812D0194B002B06D10722059B073393430833059314E005AB00933A00134B2900029800E000BF07E005AB00933A000F4B2900029800F08AF8CF
:402080000390039B013304D06B69039A9B186B6135E7BB890B985B0601D5012040421FB0F0BDC046CD260000D3260000D726000000000000F91D0000F7B5170001938A6850
:4020C0000B6900900C00934200DA130022003B6043321278002A01D001333B6023689B0602D53B6802333B60062523681D401ED0230043331B785A1E9341226892061CD586
:402100003020E1184331087021005A1C45310978A2184332023311700FE022000123193201990098089EB047431C0ED00135E3683A689B1A9D42F0DBDAE7220001994332F7
:402140000098089DA847431C02D10120404220E006232068E1683A6803400025042B03D18D1AEB43DB171D40A3682269934201DD9B1AED180027BD420AD0220001231A329E
:4021800001990098089EB047431CDED00137F2E70020FEBDF0B58BB006920A0043320793059004920A7E0C00109B6E2A00D1ABE011D8632A22D009D8002A00D1B5E0582A0D
:4021C00000D0C5E045310A70814A4FE0642A1DD0692A1BD0BCE0732A00D1AAE009D86F2A29D0702A00D0B3E0202209680A43226037E0752A1FD0782A33D0A9E00E001A689E
:402200004236111D196013683370A4E021681A68080606D4490604D5111D19600023D55E02E0111D19601568002D3BDA2D23049A6D42137036E021681A68080606D4490605
:4022400004D51568111D1960ADB202E0111D196015685F4B227E039308276F2A1DD00A271BE022007821453211705A4A19680392081D226818600D68100602D4500600D51B
:40228000ADB2D30702D520231A4322601027002D03D1202322689A4322602300002243331A7002E00A274A4B03936368A360002B09DB0422216891432160002D05D1049E7F
:4022C000002B11D07BE0002D79D0049E28003900FFF71AFD039B013E5B5C280033703900FFF78CFC051EF1D1082F09D12368DB0706D563682269934202DC3023013E33705F
:40230000049B9B1B23612BE009681A68080607D4490605D5111D19601368A28A1A8004E0111D1960136862691A600023049E236116E01A68111D1960166800216268300080
:4023400000F04AF8002801D0801B6060636803E0260042363270012323610023049A1370079B09AA00932100069B0598FFF7A4FE431C02D10120404227E0236932000699E5
:402380000598079DA847431CF4D0236800259B070FD4099BE068984217DA180015E022000123193206990598079EB047431CE1D00135E368099A9B1A9D42F0DBE9E72600DF
:4023C000039B42361B7833708EE70BB0F0BDC046DE260000EF260000C9B28218904204D003788B4202D00130F8E70020704710B5884202D98B18984201D3002305E09B1A61
:40240000013A08D3995C8154FAE7934203D0CC5CC4540133F9E710BD70B50500002944D00C1F2368002B00DAE418280000F0D8F81E4A13681100002B02D16360146031E0D2
:40244000A3420DD92268A018834203D118685B688218226063600C6024E0A24203D813005A68002AF9D11E689819A0420BD12168711858181960824214D110685268411878
:4024800019605A600EE0A04202D90C232B6009E021686018824203D1106852684118216062605C60280000F09CF870BDAC010020032370B5CD1C9D43083506000C2D01D26F
:4024C0000C2501E0002D01DBA94202D90C23336048E0300000F084F8234B1C681A002100002913D00B685B1B0DD40B2B02D90B60CC181EE08C4202D1636813601AE04B6888
:4025000063600C0016E00C004968E9E7174C2368002B03D1300000F051F820602900300000F04CF8431C18D00323C41C9C43A0420DD12560300000F054F8200007220B3085
:40254000231D9043C31A0ED05A42E2500BE0211A300000F033F8431CEBD10C233000336000F03FF8002070BDAC010020A8010020F8B506000C001500002904D11100FFF75E
:4025800097FF040018E0002A03D1FFF745FF2C0012E000F027F885420ED929003000FFF787FF071E07D021002A00FFF7DFFB21003000FFF731FF3C002000F8BD002370B5BA
:4025C000064C050008002360FEF736FA431C03D12368002B00D02B6070BDC046B4010020704770470B1F1A68101F002A04DA891804390B68D018043870470000000000000B
:402600004265654D696C6C203256300D0A000000737461727400000073746F7000000000496E70757425753B00000000256C753B0000000025750D0A0000000078080000C6
:402640008A0800009C080000AE080000C0080000D208000000300F40000400400F4000040F400F401180130217841B021C086B826D80740477047B02C4F0C690DAC0DCE0EC
:40268000DE200000030405060708090A0B0C0E0F101112131415161718191B1C1D1E1F2021222325262728292A2B2E2F3031323334350000EEDBC9B9AA9B8E82766B6056F5
:4026C0004D443B332C241D17100A044300232D302B2000686C4C00656667454647003031323334353637383941424344454600303132333435363738396162636465660003
:40270000F8B5C046F8BC08BC9E46704795020000210B0000F8B5C046F8BC08BC9E4670476D02000038270000C800002080000000700000000000000000000000B8010020CB
:4027400000366E01C05D0000180000000000E02E010000000000000000000000000000000000000000000000000000000000000000000000CB26000000000000000000007F
:4027800000000000000000000000000000000000000000000000000000000000000000000000000000000000000000000000000000000000E4000020000000000000000015
:4027C00000000000000000000000000000000000000000000000000000000000000000000000000000000000000000000000000000000000000000000000000000000000D9
:402800000000000000000000000000000000000000000000000000000000000000000000000000000000000000000000000000000000000000000000000000000000000098
:402840000000000000000000000000000000000000000000000000000000000000000000000000000000000000000000000000000000000000000000000000000000000058
:402880000000000000000000000000000000000000000000000000000000000000000000000000000000000000000000000000000000000000000000000000000000000018
:020000040001F9
:0200000490303A
:02000000498D28
:0200000490402A
:4000000000000000000000000000000000000000000000000000000000000000000000000000000000000000000000000000000000000000000000000000000000000000C0
:400040000000000000000000000000000000000000000000000000000000000000000000000000000000000000000000000000000000000000000000000000000000000080
:0200000490501A
:0C0000000002112D11A10001113A5B2E2D
:0200000490600A
:0100000001FE
:00000001FF